{
  "_format": "hh-sol-artifact-1",
  "contractName": "SwapToken",
  "sourceName": "contracts/Lock.sol",
  "abi": [
    {
      "inputs": [],
      "stateMutability": "nonpayable",
      "type": "constructor"
    },
    {
      "inputs": [
        {
          "internalType": "string",
          "name": "tokenName",
          "type": "string"
        },
        {
          "internalType": "address",
          "name": "_address",
          "type": "address"
        }
      ],
      "name": "getBalance",
      "outputs": [
        {
          "internalType": "uint256",
          "name": "",
          "type": "uint256"
        }
      ],
      "stateMutability": "view",
      "type": "function"
    },
    {
      "inputs": [],
      "name": "getEthBalance",
      "outputs": [
        {
          "internalType": "uint256",
          "name": "",
          "type": "uint256"
        }
      ],
      "stateMutability": "view",
      "type": "function"
    },
    {
      "inputs": [
        {
          "internalType": "string",
          "name": "tokenName",
          "type": "string"
        }
      ],
      "name": "getName",
      "outputs": [
        {
          "internalType": "string",
          "name": "",
          "type": "string"
        }
      ],
      "stateMutability": "view",
      "type": "function"
    },
    {
      "inputs": [
        {
          "internalType": "string",
          "name": "tokenName",
          "type": "string"
        }
      ],
      "name": "getSymbol",
      "outputs": [
        {
          "internalType": "string",
          "name": "",
          "type": "string"
        }
      ],
      "stateMutability": "view",
      "type": "function"
    },
    {
      "inputs": [
        {
          "internalType": "string",
          "name": "tokenName",
          "type": "string"
        }
      ],
      "name": "getTokenAddress",
      "outputs": [
        {
          "internalType": "address",
          "name": "",
          "type": "address"
        }
      ],
      "stateMutability": "view",
      "type": "function"
    },
    {
      "inputs": [
        {
          "internalType": "string",
          "name": "tokenName",
          "type": "string"
        }
      ],
      "name": "swapEthToToken",
      "outputs": [
        {
          "internalType": "uint256",
          "name": "",
          "type": "uint256"
        }
      ],
      "stateMutability": "payable",
      "type": "function"
    },
    {
      "inputs": [
        {
          "internalType": "string",
          "name": "tokenName",
          "type": "string"
        },
        {
          "internalType": "uint256",
          "name": "_amount",
          "type": "uint256"
        }
      ],
      "name": "swapTokenToEth",
      "outputs": [
        {
          "internalType": "uint256",
          "name": "",
          "type": "uint256"
        }
      ],
      "stateMutability": "nonpayable",
      "type": "function"
    },
    {
      "inputs": [
        {
          "internalType": "string",
          "name": "tokenName",
          "type": "string"
        },
        {
          "internalType": "string",
          "name": "destTokenName",
          "type": "string"
        },
        {
          "internalType": "uint256",
          "name": "_amount",
          "type": "uint256"
        }
      ],
      "name": "swapTokenToToken",
      "outputs": [],
      "stateMutability": "nonpayable",
      "type": "function"
    },
    {
      "inputs": [
        {
          "internalType": "uint256",
          "name": "",
          "type": "uint256"
        }
      ],
      "name": "tokens",
      "outputs": [
        {
          "internalType": "string",
          "name": "",
          "type": "string"
        }
      ],
      "stateMutability": "view",
      "type": "function"
    }
  ],
  "bytecode": "0x608060405260405180606001604052806040518060400160405280600581526020017f636f696e4100000000000000000000000000000000000000000000000000000081525081526020016040518060400160405280600581526020017f636f696e4200000000000000000000000000000000000000000000000000000081525081526020016040518060400160405280600581526020017f636f696e430000000000000000000000000000000000000000000000000000008152508152506000906003620000d09291906200020e565b5066038d7ea4c68000600255348015620000e957600080fd5b5060005b6000805490508110156200020757600080828154811062000113576200011262000309565b5b906000526020600020016000838154811062000134576200013362000309565b5b906000526020600020016040516200014c906200026e565b6200015992919062000452565b604051809103906000f08015801562000176573d6000803e3d6000fd5b5090508060016000848154811062000193576200019262000309565b5b90600052602060002001604051620001ac919062000527565b908152602001604051809103902060006101000a81548173ffffffffffffffffffffffffffffffffffffffff021916908373ffffffffffffffffffffffffffffffffffffffff160217905550508080600101915050620000ed565b5062000828565b8280548282559060005260206000209081019282156200025b579160200282015b828111156200025a57825182908162000249919062000741565b50916020019190600101906200022f565b5b5090506200026a91906200027c565b5090565b6118278062001b1f83390190565b5b80821115620002a05760008181620002969190620002a4565b506001016200027d565b5090565b508054620002b29062000367565b6000825580601f10620002c65750620002e7565b601f016020900490600052602060002090810190620002e69190620002ea565b5b50565b5b8082111562000305576000816000905550600101620002eb565b5090565b7f4e487b7100000000000000000000000000000000000000000000000000000000600052603260045260246000fd5b7f4e487b7100000000000000000000000000000000000000000000000000000000600052602260045260246000fd5b600060028204905060018216806200038057607f821691505b60208210810362000396576200039562000338565b5b50919050565b600082825260208201905092915050565b60008190508160005260206000209050919050565b60008154620003d18162000367565b620003dd81866200039c565b94506001821660008114620003fb5760018114620004125762000449565b60ff19831686528115156020028601935062000449565b6200041d85620003ad565b60005b83811015620004415781548189015260018201915060208101905062000420565b808801955050505b50505092915050565b600060408201905081810360008301526200046e8185620003c2565b90508181036020830152620004848184620003c2565b90509392505050565b600081905092915050565b60008154620004a78162000367565b620004b381866200048d565b94506001821660008114620004d15760018114620004e7576200051e565b60ff19831686528115158202860193506200051e565b620004f285620003ad565b60005b838110156200051657815481890152600182019150602081019050620004f5565b838801955050505b50505092915050565b600062000535828462000498565b915081905092915050565b600081519050919050565b7f4e487b7100000000000000000000000000000000000000000000000000000000600052604160045260246000fd5b60006020601f8301049050919050565b600082821b905092915050565b600060088302620005c97fffffffffffffffffffffffffffffffffffffffffffffffffffffffffffffffff826200058a565b620005d586836200058a565b95508019841693508086168417925050509392505050565b6000819050919050565b6000819050919050565b6000620006226200061c6200061684620005ed565b620005f7565b620005ed565b9050919050565b6000819050919050565b6200063e8362000601565b620006566200064d8262000629565b84845462000597565b825550505050565b600090565b6200066d6200065e565b6200067a81848462000633565b505050565b5b81811015620006a2576200069660008262000663565b60018101905062000680565b5050565b601f821115620006f157620006bb81620003ad565b620006c6846200057a565b81016020851015620006d6578190505b620006ee620006e5856200057a565b8301826200067f565b50505b505050565b600082821c905092915050565b60006200071660001984600802620006f6565b1980831691505092915050565b600062000731838362000703565b9150826002028217905092915050565b6200074c8262000540565b67ffffffffffffffff8111156200076857620007676200054b565b5b62000774825462000367565b62000781828285620006a6565b600060209050601f831160018114620007b95760008415620007a4578287015190505b620007b0858262000723565b86555062000820565b601f198416620007c986620003ad565b60005b82811015620007f357848901518255600182019150602085019450602081019050620007cc565b868310156200081357848901516200080f601f89168262000703565b8355505b6001600288020188555050505b505050505050565b6112e780620008386000396000f3fe6080604052600436106100865760003560e01c806389f4b3171161005957806389f4b31714610160578063aaba3e3b1461019d578063bf015aae146101da578063c409123614610203578063db6f63ee1461024057610086565b80634f64b2be1461008b57806363fcf7c5146100c85780636932cf81146100f857806370ed0ada14610135575b600080fd5b34801561009757600080fd5b506100b260048036038101906100ad9190610a43565b61027d565b6040516100bf9190610b00565b60405180910390f35b6100e260048036038101906100dd9190610c57565b610329565b6040516100ef9190610caf565b60405180910390f35b34801561010457600080fd5b5061011f600480360381019061011a9190610c57565b610459565b60405161012c9190610b00565b60405180910390f35b34801561014157600080fd5b5061014a610514565b6040516101579190610caf565b60405180910390f35b34801561016c57600080fd5b5061018760048036038101906101829190610d28565b61051c565b6040516101949190610caf565b60405180910390f35b3480156101a957600080fd5b506101c460048036038101906101bf9190610c57565b6105de565b6040516101d19190610b00565b60405180910390f35b3480156101e657600080fd5b5061020160048036038101906101fc9190610d84565b610699565b005b34801561020f57600080fd5b5061022a60048036038101906102259190610c57565b61082a565b6040516102379190610e1e565b60405180910390f35b34801561024c57600080fd5b5061026760048036038101906102629190610e39565b610872565b6040516102749190610caf565b60405180910390f35b6000818154811061028d57600080fd5b9060005260206000200160009150905080546102a890610ec4565b80601f01602080910402602001604051908101604052809291908181526020018280546102d490610ec4565b80156103215780601f106102f657610100808354040283529160200191610321565b820191906000526020600020905b81548152906001019060200180831161030457829003601f168201915b505050505081565b6000803490506000670de0b6b3a7640000600254836103489190610f53565b6103529190610f84565b90506001846040516103649190611002565b908152602001604051809103902060009054906101000a900473ffffffffffffffffffffffffffffffffffffffff1673ffffffffffffffffffffffffffffffffffffffff1663a9059cbb33836040518363ffffffff1660e01b81526004016103cd929190611019565b6020604051808303816000875af11580156103ec573d6000803e3d6000fd5b505050506040513d601f19601f82011682018060405250810190610410919061107a565b61044f576040517f08c379a0000000000000000000000000000000000000000000000000000000008152600401610446906110f3565b60405180910390fd5b8092505050919050565b606060018260405161046b9190611002565b908152602001604051809103902060009054906101000a900473ffffffffffffffffffffffffffffffffffffffff1673ffffffffffffffffffffffffffffffffffffffff166306fdde036040518163ffffffff1660e01b8152600401600060405180830381865afa1580156104e4573d6000803e3d6000fd5b505050506040513d6000823e3d601f19601f8201168201806040525081019061050d9190611183565b9050919050565b600047905090565b600060018360405161052e9190611002565b908152602001604051809103902060009054906101000a900473ffffffffffffffffffffffffffffffffffffffff1673ffffffffffffffffffffffffffffffffffffffff166370a08231836040518263ffffffff1660e01b81526004016105959190610e1e565b602060405180830381865afa1580156105b2573d6000803e3d6000fd5b505050506040513d601f19601f820116820180604052508101906105d691906111e1565b905092915050565b60606001826040516105f09190611002565b908152602001604051809103902060009054906101000a900473ffffffffffffffffffffffffffffffffffffffff1673ffffffffffffffffffffffffffffffffffffffff166395d89b416040518163ffffffff1660e01b8152600401600060405180830381865afa158015610669573d6000803e3d6000fd5b505050506040513d6000823e3d601f19601f820116820180604052508101906106929190611183565b9050919050565b6001836040516106a99190611002565b908152602001604051809103902060009054906101000a900473ffffffffffffffffffffffffffffffffffffffff1673ffffffffffffffffffffffffffffffffffffffff166323b872dd3330846040518463ffffffff1660e01b81526004016107149392919061120e565b6020604051808303816000875af1158015610733573d6000803e3d6000fd5b505050506040513d601f19601f82011682018060405250810190610757919061107a565b61076057600080fd5b6001826040516107709190611002565b908152602001604051809103902060009054906101000a900473ffffffffffffffffffffffffffffffffffffffff1673ffffffffffffffffffffffffffffffffffffffff1663a9059cbb33836040518363ffffffff1660e01b81526004016107d9929190611019565b6020604051808303816000875af11580156107f8573d6000803e3d6000fd5b505050506040513d601f19601f8201168201806040525081019061081c919061107a565b61082557600080fd5b505050565b600060018260405161083c9190611002565b908152602001604051809103902060009054906101000a900473ffffffffffffffffffffffffffffffffffffffff169050919050565b600080670de0b6b3a7640000836108899190610f53565b905060006002548261089b9190610f84565b9050804710156108e0576040517f08c379a00000000000000000000000000000000000000000000000000000000081526004016108d790611291565b60405180910390fd5b3373ffffffffffffffffffffffffffffffffffffffff166108fc829081150290604051600060405180830381858888f19350505050158015610926573d6000803e3d6000fd5b506001856040516109379190611002565b908152602001604051809103902060009054906101000a900473ffffffffffffffffffffffffffffffffffffffff1673ffffffffffffffffffffffffffffffffffffffff166323b872dd3330876040518463ffffffff1660e01b81526004016109a29392919061120e565b6020604051808303816000875af11580156109c1573d6000803e3d6000fd5b505050506040513d601f19601f820116820180604052508101906109e5919061107a565b6109ee57600080fd5b809250505092915050565b6000604051905090565b600080fd5b600080fd5b6000819050919050565b610a2081610a0d565b8114610a2b57600080fd5b50565b600081359050610a3d81610a17565b92915050565b600060208284031215610a5957610a58610a03565b5b6000610a6784828501610a2e565b91505092915050565b600081519050919050565b600082825260208201905092915050565b60005b83811015610aaa578082015181840152602081019050610a8f565b60008484015250505050565b6000601f19601f8301169050919050565b6000610ad282610a70565b610adc8185610a7b565b9350610aec818560208601610a8c565b610af581610ab6565b840191505092915050565b60006020820190508181036000830152610b1a8184610ac7565b905092915050565b600080fd5b600080fd5b7f4e487b7100000000000000000000000000000000000000000000000000000000600052604160045260246000fd5b610b6482610ab6565b810181811067ffffffffffffffff82111715610b8357610b82610b2c565b5b80604052505050565b6000610b966109f9565b9050610ba28282610b5b565b919050565b600067ffffffffffffffff821115610bc257610bc1610b2c565b5b610bcb82610ab6565b9050602081019050919050565b82818337600083830152505050565b6000610bfa610bf584610ba7565b610b8c565b905082815260208101848484011115610c1657610c15610b27565b5b610c21848285610bd8565b509392505050565b600082601f830112610c3e57610c3d610b22565b5b8135610c4e848260208601610be7565b91505092915050565b600060208284031215610c6d57610c6c610a03565b5b600082013567ffffffffffffffff811115610c8b57610c8a610a08565b5b610c9784828501610c29565b91505092915050565b610ca981610a0d565b82525050565b6000602082019050610cc46000830184610ca0565b92915050565b600073ffffffffffffffffffffffffffffffffffffffff82169050919050565b6000610cf582610cca565b9050919050565b610d0581610cea565b8114610d1057600080fd5b50565b600081359050610d2281610cfc565b92915050565b60008060408385031215610d3f57610d3e610a03565b5b600083013567ffffffffffffffff811115610d5d57610d5c610a08565b5b610d6985828601610c29565b9250506020610d7a85828601610d13565b9150509250929050565b600080600060608486031215610d9d57610d9c610a03565b5b600084013567ffffffffffffffff811115610dbb57610dba610a08565b5b610dc786828701610c29565b935050602084013567ffffffffffffffff811115610de857610de7610a08565b5b610df486828701610c29565b9250506040610e0586828701610a2e565b9150509250925092565b610e1881610cea565b82525050565b6000602082019050610e336000830184610e0f565b92915050565b60008060408385031215610e5057610e4f610a03565b5b600083013567ffffffffffffffff811115610e6e57610e6d610a08565b5b610e7a85828601610c29565b9250506020610e8b85828601610a2e565b9150509250929050565b7f4e487b7100000000000000000000000000000000000000000000000000000000600052602260045260246000fd5b60006002820490506001821680610edc57607f821691505b602082108103610eef57610eee610e95565b5b50919050565b7f4e487b7100000000000000000000000000000000000000000000000000000000600052601260045260246000fd5b7f4e487b7100000000000000000000000000000000000000000000000000000000600052601160045260246000fd5b6000610f5e82610a0d565b9150610f6983610a0d565b925082610f7957610f78610ef5565b5b828204905092915050565b6000610f8f82610a0d565b9150610f9a83610a0d565b9250828202610fa881610a0d565b91508282048414831517610fbf57610fbe610f24565b5b5092915050565b600081905092915050565b6000610fdc82610a70565b610fe68185610fc6565b9350610ff6818560208601610a8c565b80840191505092915050565b600061100e8284610fd1565b915081905092915050565b600060408201905061102e6000830185610e0f565b61103b6020830184610ca0565b9392505050565b60008115159050919050565b61105781611042565b811461106257600080fd5b50565b6000815190506110748161104e565b92915050565b6000602082840312156110905761108f610a03565b5b600061109e84828501611065565b91505092915050565b7f5472616e73666572206661696c65640000000000000000000000000000000000600082015250565b60006110dd600f83610a7b565b91506110e8826110a7565b602082019050919050565b6000602082019050818103600083015261110c816110d0565b9050919050565b600061112661112184610ba7565b610b8c565b90508281526020810184848401111561114257611141610b27565b5b61114d848285610a8c565b509392505050565b600082601f83011261116a57611169610b22565b5b815161117a848260208601611113565b91505092915050565b60006020828403121561119957611198610a03565b5b600082015167ffffffffffffffff8111156111b7576111b6610a08565b5b6111c384828501611155565b91505092915050565b6000815190506111db81610a17565b92915050565b6000602082840312156111f7576111f6610a03565b5b6000611205848285016111cc565b91505092915050565b60006060820190506112236000830186610e0f565b6112306020830185610e0f565b61123d6040830184610ca0565b949350505050565b7f576974686472617720616d6f756e7420657863656564732062616c616e636500600082015250565b600061127b601f83610a7b565b915061128682611245565b602082019050919050565b600060208201905081810360008301526112aa8161126e565b905091905056fea264697066735822122099491e118fb21762f2aaa7ba69050721bf92800c69bc54972e39b3a472238ed864736f6c6343000818003360806040523480156200001157600080fd5b5060405162001827380380620018278339818101604052810190620000379190620004d4565b818181600390816200004a9190620007a4565b5080600490816200005c9190620007a4565b5050506200007c336a084595161401484a0000006200008460201b60201c565b5050620009c2565b600073ffffffffffffffffffffffffffffffffffffffff168273ffffffffffffffffffffffffffffffffffffffff1603620000f95760006040517fec442f05000000000000000000000000000000000000000000000000000000008152600401620000f09190620008d0565b60405180910390fd5b6200010d600083836200011160201b60201c565b5050565b600073ffffffffffffffffffffffffffffffffffffffff168373ffffffffffffffffffffffffffffffffffffffff1603620001675780600260008282546200015a91906200091c565b925050819055506200023d565b60008060008573ffffffffffffffffffffffffffffffffffffffff1673ffffffffffffffffffffffffffffffffffffffff16815260200190815260200160002054905081811015620001f6578381836040517fe450d38c000000000000000000000000000000000000000000000000000000008152600401620001ed9392919062000968565b60405180910390fd5b8181036000808673ffffffffffffffffffffffffffffffffffffffff1673ffffffffffffffffffffffffffffffffffffffff16815260200190815260200160002081905550505b600073ffffffffffffffffffffffffffffffffffffffff168273ffffffffffffffffffffffffffffffffffffffff1603620002885780600260008282540392505081905550620002d5565b806000808473ffffffffffffffffffffffffffffffffffffffff1673ffffffffffffffffffffffffffffffffffffffff168152602001908152602001600020600082825401925050819055505b8173ffffffffffffffffffffffffffffffffffffffff168373ffffffffffffffffffffffffffffffffffffffff167fddf252ad1be2c89b69c2b068fc378daa952ba7f163c4a11628f55a4df523b3ef83604051620003349190620009a5565b60405180910390a3505050565b6000604051905090565b600080fd5b600080fd5b600080fd5b600080fd5b6000601f19601f8301169050919050565b7f4e487b7100000000000000000000000000000000000000000000000000000000600052604160045260246000fd5b620003aa826200035f565b810181811067ffffffffffffffff82111715620003cc57620003cb62000370565b5b80604052505050565b6000620003e162000341565b9050620003ef82826200039f565b919050565b600067ffffffffffffffff82111562000412576200041162000370565b5b6200041d826200035f565b9050602081019050919050565b60005b838110156200044a5780820151818401526020810190506200042d565b60008484015250505050565b60006200046d6200046784620003f4565b620003d5565b9050828152602081018484840111156200048c576200048b6200035a565b5b620004998482856200042a565b509392505050565b600082601f830112620004b957620004b862000355565b5b8151620004cb84826020860162000456565b91505092915050565b60008060408385031215620004ee57620004ed6200034b565b5b600083015167ffffffffffffffff8111156200050f576200050e62000350565b5b6200051d85828601620004a1565b925050602083015167ffffffffffffffff81111562000541576200054062000350565b5b6200054f85828601620004a1565b9150509250929050565b600081519050919050565b7f4e487b7100000000000000000000000000000000000000000000000000000000600052602260045260246000fd5b60006002820490506001821680620005ac57607f821691505b602082108103620005c257620005c162000564565b5b50919050565b60008190508160005260206000209050919050565b60006020601f8301049050919050565b600082821b905092915050565b6000600883026200062c7fffffffffffffffffffffffffffffffffffffffffffffffffffffffffffffffff82620005ed565b620006388683620005ed565b95508019841693508086168417925050509392505050565b6000819050919050565b6000819050919050565b6000620006856200067f620006798462000650565b6200065a565b62000650565b9050919050565b6000819050919050565b620006a18362000664565b620006b9620006b0826200068c565b848454620005fa565b825550505050565b600090565b620006d0620006c1565b620006dd81848462000696565b505050565b5b818110156200070557620006f9600082620006c6565b600181019050620006e3565b5050565b601f82111562000754576200071e81620005c8565b6200072984620005dd565b8101602085101562000739578190505b620007516200074885620005dd565b830182620006e2565b50505b505050565b600082821c905092915050565b6000620007796000198460080262000759565b1980831691505092915050565b600062000794838362000766565b9150826002028217905092915050565b620007af8262000559565b67ffffffffffffffff811115620007cb57620007ca62000370565b5b620007d7825462000593565b620007e482828562000709565b600060209050601f8311600181146200081c576000841562000807578287015190505b62000813858262000786565b86555062000883565b601f1984166200082c86620005c8565b60005b8281101562000856578489015182556001820191506020850194506020810190506200082f565b8683101562000876578489015162000872601f89168262000766565b8355505b6001600288020188555050505b505050505050565b600073ffffffffffffffffffffffffffffffffffffffff82169050919050565b6000620008b8826200088b565b9050919050565b620008ca81620008ab565b82525050565b6000602082019050620008e76000830184620008bf565b92915050565b7f4e487b7100000000000000000000000000000000000000000000000000000000600052601160045260246000fd5b6000620009298262000650565b9150620009368362000650565b9250828201905080821115620009515762000950620008ed565b5b92915050565b620009628162000650565b82525050565b60006060820190506200097f6000830186620008bf565b6200098e602083018562000957565b6200099d604083018462000957565b949350505050565b6000602082019050620009bc600083018462000957565b92915050565b610e5580620009d26000396000f3fe608060405234801561001057600080fd5b50600436106100935760003560e01c8063313ce56711610066578063313ce5671461013457806370a082311461015257806395d89b4114610182578063a9059cbb146101a0578063dd62ed3e146101d057610093565b806306fdde0314610098578063095ea7b3146100b657806318160ddd146100e657806323b872dd14610104575b600080fd5b6100a0610200565b6040516100ad9190610aa9565b60405180910390f35b6100d060048036038101906100cb9190610b64565b610292565b6040516100dd9190610bbf565b60405180910390f35b6100ee6102b5565b6040516100fb9190610be9565b60405180910390f35b61011e60048036038101906101199190610c04565b6102bf565b60405161012b9190610bbf565b60405180910390f35b61013c6102ee565b6040516101499190610c73565b60405180910390f35b61016c60048036038101906101679190610c8e565b6102f7565b6040516101799190610be9565b60405180910390f35b61018a61033f565b6040516101979190610aa9565b60405180910390f35b6101ba60048036038101906101b59190610b64565b6103d1565b6040516101c79190610bbf565b60405180910390f35b6101ea60048036038101906101e59190610cbb565b6103f4565b6040516101f79190610be9565b60405180910390f35b60606003805461020f90610d2a565b80601f016020809104026020016040519081016040528092919081815260200182805461023b90610d2a565b80156102885780601f1061025d57610100808354040283529160200191610288565b820191906000526020600020905b81548152906001019060200180831161026b57829003601f168201915b5050505050905090565b60008061029d61047b565b90506102aa818585610483565b600191505092915050565b6000600254905090565b6000806102ca61047b565b90506102d7858285610495565b6102e2858585610529565b60019150509392505050565b60006012905090565b60008060008373ffffffffffffffffffffffffffffffffffffffff1673ffffffffffffffffffffffffffffffffffffffff168152602001908152602001600020549050919050565b60606004805461034e90610d2a565b80601f016020809104026020016040519081016040528092919081815260200182805461037a90610d2a565b80156103c75780601f1061039c576101008083540402835291602001916103c7565b820191906000526020600020905b8154815290600101906020018083116103aa57829003601f168201915b5050505050905090565b6000806103dc61047b565b90506103e9818585610529565b600191505092915050565b6000600160008473ffffffffffffffffffffffffffffffffffffffff1673ffffffffffffffffffffffffffffffffffffffff16815260200190815260200160002060008373ffffffffffffffffffffffffffffffffffffffff1673ffffffffffffffffffffffffffffffffffffffff16815260200190815260200160002054905092915050565b600033905090565b610490838383600161061d565b505050565b60006104a184846103f4565b90507fffffffffffffffffffffffffffffffffffffffffffffffffffffffffffffffff81146105235781811015610513578281836040517ffb8f41b200000000000000000000000000000000000000000000000000000000815260040161050a93929190610d6a565b60405180910390fd5b6105228484848403600061061d565b5b50505050565b600073ffffffffffffffffffffffffffffffffffffffff168373ffffffffffffffffffffffffffffffffffffffff160361059b5760006040517f96c6fd1e0000000000000000000000000000000000000000000000000000000081526004016105929190610da1565b60405180910390fd5b600073ffffffffffffffffffffffffffffffffffffffff168273ffffffffffffffffffffffffffffffffffffffff160361060d5760006040517fec442f050000000000000000000000000000000000000000000000000000000081526004016106049190610da1565b60405180910390fd5b6106188383836107f4565b505050565b600073ffffffffffffffffffffffffffffffffffffffff168473ffffffffffffffffffffffffffffffffffffffff160361068f5760006040517fe602df050000000000000000000000000000000000000000000000000000000081526004016106869190610da1565b60405180910390fd5b600073ffffffffffffffffffffffffffffffffffffffff168373ffffffffffffffffffffffffffffffffffffffff16036107015760006040517f94280d620000000000000000000000000000000000000000000000000000000081526004016106f89190610da1565b60405180910390fd5b81600160008673ffffffffffffffffffffffffffffffffffffffff1673ffffffffffffffffffffffffffffffffffffffff16815260200190815260200160002060008573ffffffffffffffffffffffffffffffffffffffff1673ffffffffffffffffffffffffffffffffffffffff1681526020019081526020016000208190555080156107ee578273ffffffffffffffffffffffffffffffffffffffff168473ffffffffffffffffffffffffffffffffffffffff167f8c5be1e5ebec7d5bd14f71427d1e84f3dd0314c0f7b2291e5b200ac8c7c3b925846040516107e59190610be9565b60405180910390a35b50505050565b600073ffffffffffffffffffffffffffffffffffffffff168373ffffffffffffffffffffffffffffffffffffffff160361084657806002600082825461083a9190610deb565b92505081905550610919565b60008060008573ffffffffffffffffffffffffffffffffffffffff1673ffffffffffffffffffffffffffffffffffffffff168152602001908152602001600020549050818110156108d2578381836040517fe450d38c0000000000000000000000000000000000000000000000000000000081526004016108c993929190610d6a565b60405180910390fd5b8181036000808673ffffffffffffffffffffffffffffffffffffffff1673ffffffffffffffffffffffffffffffffffffffff16815260200190815260200160002081905550505b600073ffffffffffffffffffffffffffffffffffffffff168273ffffffffffffffffffffffffffffffffffffffff160361096257806002600082825403925050819055506109af565b806000808473ffffffffffffffffffffffffffffffffffffffff1673ffffffffffffffffffffffffffffffffffffffff168152602001908152602001600020600082825401925050819055505b8173ffffffffffffffffffffffffffffffffffffffff168373ffffffffffffffffffffffffffffffffffffffff167fddf252ad1be2c89b69c2b068fc378daa952ba7f163c4a11628f55a4df523b3ef83604051610a0c9190610be9565b60405180910390a3505050565b600081519050919050565b600082825260208201905092915050565b60005b83811015610a53578082015181840152602081019050610a38565b60008484015250505050565b6000601f19601f8301169050919050565b6000610a7b82610a19565b610a858185610a24565b9350610a95818560208601610a35565b610a9e81610a5f565b840191505092915050565b60006020820190508181036000830152610ac38184610a70565b905092915050565b600080fd5b600073ffffffffffffffffffffffffffffffffffffffff82169050919050565b6000610afb82610ad0565b9050919050565b610b0b81610af0565b8114610b1657600080fd5b50565b600081359050610b2881610b02565b92915050565b6000819050919050565b610b4181610b2e565b8114610b4c57600080fd5b50565b600081359050610b5e81610b38565b92915050565b60008060408385031215610b7b57610b7a610acb565b5b6000610b8985828601610b19565b9250506020610b9a85828601610b4f565b9150509250929050565b60008115159050919050565b610bb981610ba4565b82525050565b6000602082019050610bd46000830184610bb0565b92915050565b610be381610b2e565b82525050565b6000602082019050610bfe6000830184610bda565b92915050565b600080600060608486031215610c1d57610c1c610acb565b5b6000610c2b86828701610b19565b9350506020610c3c86828701610b19565b9250506040610c4d86828701610b4f565b9150509250925092565b600060ff82169050919050565b610c6d81610c57565b82525050565b6000602082019050610c886000830184610c64565b92915050565b600060208284031215610ca457610ca3610acb565b5b6000610cb284828501610b19565b91505092915050565b60008060408385031215610cd257610cd1610acb565b5b6000610ce085828601610b19565b9250506020610cf185828601610b19565b9150509250929050565b7f4e487b7100000000000000000000000000000000000000000000000000000000600052602260045260246000fd5b60006002820490506001821680610d4257607f821691505b602082108103610d5557610d54610cfb565b5b50919050565b610d6481610af0565b82525050565b6000606082019050610d7f6000830186610d5b565b610d8c6020830185610bda565b610d996040830184610bda565b949350505050565b6000602082019050610db66000830184610d5b565b92915050565b7f4e487b7100000000000000000000000000000000000000000000000000000000600052601160045260246000fd5b6000610df682610b2e565b9150610e0183610b2e565b9250828201905080821115610e1957610e18610dbc565b5b9291505056fea2646970667358221220516889af3849056bd58172b61b6c29aa3e933b752071a59cbc303f2b5078095964736f6c63430008180033",
  "linkReferences": {},
  "deployedLinkReferences": {}
}